{
  "contractName": "Main",
  "abi": [
    {
      "inputs": [],
      "stateMutability": "nonpayable",
      "type": "constructor"
    },
    {
      "anonymous": false,
      "inputs": [
        {
          "indexed": false,
          "internalType": "string",
          "name": "fullname",
          "type": "string"
        },
        {
          "indexed": false,
          "internalType": "string",
          "name": "email",
          "type": "string"
        },
        {
          "indexed": false,
          "internalType": "address",
          "name": "account",
          "type": "address"
        }
      ],
      "name": "RegisterParticipant",
      "type": "event"
    },
    {
      "anonymous": false,
      "inputs": [
        {
          "indexed": false,
          "internalType": "string",
          "name": "fullname",
          "type": "string"
        },
        {
          "indexed": false,
          "internalType": "string",
          "name": "email",
          "type": "string"
        },
        {
          "indexed": false,
          "internalType": "address",
          "name": "account",
          "type": "address"
        },
        {
          "indexed": false,
          "internalType": "int256",
          "name": "nSessions",
          "type": "int256"
        },
        {
          "indexed": false,
          "internalType": "int256",
          "name": "deviation",
          "type": "int256"
        }
      ],
      "name": "UpdateParticipant",
      "type": "event"
    },
    {
      "inputs": [
        {
          "internalType": "address",
          "name": "",
          "type": "address"
        }
      ],
      "name": "_mpParticipants",
      "outputs": [
        {
          "internalType": "address",
          "name": "account",
          "type": "address"
        },
        {
          "internalType": "string",
          "name": "fullname",
          "type": "string"
        },
        {
          "internalType": "string",
          "name": "email",
          "type": "string"
        },
        {
          "internalType": "int256",
          "name": "nSessions",
          "type": "int256"
        },
        {
          "internalType": "int256",
          "name": "deviation",
          "type": "int256"
        }
      ],
      "stateMutability": "view",
      "type": "function"
    },
    {
      "inputs": [],
      "name": "admin",
      "outputs": [
        {
          "internalType": "address",
          "name": "",
          "type": "address"
        }
      ],
      "stateMutability": "view",
      "type": "function"
    },
    {
      "inputs": [],
      "name": "maxParticipant",
      "outputs": [
        {
          "internalType": "uint256",
          "name": "",
          "type": "uint256"
        }
      ],
      "stateMutability": "view",
      "type": "function"
    },
    {
      "inputs": [
        {
          "internalType": "uint256",
          "name": "",
          "type": "uint256"
        }
      ],
      "name": "sessions",
      "outputs": [
        {
          "internalType": "address",
          "name": "",
          "type": "address"
        }
      ],
      "stateMutability": "view",
      "type": "function"
    },
    {
      "inputs": [],
      "name": "getAdmin",
      "outputs": [
        {
          "internalType": "address",
          "name": "",
          "type": "address"
        }
      ],
      "stateMutability": "view",
      "type": "function"
    },
    {
      "inputs": [
        {
          "internalType": "string",
          "name": "fullname",
          "type": "string"
        },
        {
          "internalType": "string",
          "name": "email",
          "type": "string"
        },
        {
          "internalType": "address",
          "name": "account",
          "type": "address"
        }
      ],
      "name": "register",
      "outputs": [],
      "stateMutability": "nonpayable",
      "type": "function"
    },
    {
      "inputs": [
        {
          "internalType": "uint256",
          "name": "_max",
          "type": "uint256"
        }
      ],
      "name": "updateMaxParticipant",
      "outputs": [],
      "stateMutability": "nonpayable",
      "type": "function"
    },
    {
      "inputs": [
        {
          "internalType": "address",
          "name": "addr",
          "type": "address"
        }
      ],
      "name": "participants",
      "outputs": [
        {
          "internalType": "string",
          "name": "fullname",
          "type": "string"
        },
        {
          "internalType": "string",
          "name": "email",
          "type": "string"
        },
        {
          "internalType": "address",
          "name": "account",
          "type": "address"
        },
        {
          "internalType": "int256",
          "name": "nSessions",
          "type": "int256"
        },
        {
          "internalType": "int256",
          "name": "deviation",
          "type": "int256"
        }
      ],
      "stateMutability": "view",
      "type": "function"
    },
    {
      "inputs": [],
      "name": "getAllParticipants",
      "outputs": [
        {
          "components": [
            {
              "internalType": "address",
              "name": "account",
              "type": "address"
            },
            {
              "internalType": "string",
              "name": "fullname",
              "type": "string"
            },
            {
              "internalType": "string",
              "name": "email",
              "type": "string"
            },
            {
              "internalType": "int256",
              "name": "nSessions",
              "type": "int256"
            },
            {
              "internalType": "int256",
              "name": "deviation",
              "type": "int256"
            }
          ],
          "internalType": "struct Main.IParticipant[]",
          "name": "",
          "type": "tuple[]"
        }
      ],
      "stateMutability": "view",
      "type": "function"
    },
    {
      "inputs": [
        {
          "internalType": "address",
          "name": "account",
          "type": "address"
        },
        {
          "internalType": "address",
          "name": "session",
          "type": "address"
        }
      ],
      "name": "getDeviationOfParticipant",
      "outputs": [
        {
          "internalType": "int256",
          "name": "",
          "type": "int256"
        }
      ],
      "stateMutability": "view",
      "type": "function"
    },
    {
      "inputs": [
        {
          "internalType": "uint256",
          "name": "index",
          "type": "uint256"
        },
        {
          "internalType": "string",
          "name": "fullname",
          "type": "string"
        },
        {
          "internalType": "string",
          "name": "email",
          "type": "string"
        },
        {
          "internalType": "address",
          "name": "accountOld",
          "type": "address"
        },
        {
          "internalType": "address",
          "name": "accountNew",
          "type": "address"
        },
        {
          "internalType": "int256",
          "name": "nSessions",
          "type": "int256"
        },
        {
          "internalType": "int256",
          "name": "deviation",
          "type": "int256"
        }
      ],
      "name": "updateParticipantByIndex",
      "outputs": [],
      "stateMutability": "nonpayable",
      "type": "function"
    },
    {
      "inputs": [],
      "name": "nParticipants",
      "outputs": [
        {
          "internalType": "uint256",
          "name": "",
          "type": "uint256"
        }
      ],
      "stateMutability": "view",
      "type": "function"
    },
    {
      "inputs": [
        {
          "internalType": "address",
          "name": "session",
          "type": "address"
        }
      ],
      "name": "addSession",
      "outputs": [],
      "stateMutability": "nonpayable",
      "type": "function"
    },
    {
      "inputs": [],
      "name": "getNumberSession",
      "outputs": [
        {
          "internalType": "uint256",
          "name": "",
          "type": "uint256"
        }
      ],
      "stateMutability": "view",
      "type": "function"
    },
    {
      "inputs": [
        {
          "internalType": "address",
          "name": "account",
          "type": "address"
        },
        {
          "internalType": "address",
          "name": "session",
          "type": "address"
        }
      ],
      "name": "updateNumberOfPricingSessionByAccount",
      "outputs": [],
      "stateMutability": "nonpayable",
      "type": "function"
    },
    {
      "inputs": [
        {
          "internalType": "int256",
          "name": "newDeviation",
          "type": "int256"
        },
        {
          "internalType": "address",
          "name": "account",
          "type": "address"
        },
        {
          "internalType": "address",
          "name": "session",
          "type": "address"
        }
      ],
      "name": "caculatorAccumulatedDeviation",
      "outputs": [],
      "stateMutability": "nonpayable",
      "type": "function"
    },
    {
      "inputs": [
        {
          "internalType": "address",
          "name": "account",
          "type": "address"
        },
        {
          "internalType": "address",
          "name": "session",
          "type": "address"
        }
      ],
      "name": "checkAccountHasExists",
      "outputs": [
        {
          "internalType": "bool",
          "name": "",
          "type": "bool"
        }
      ],
      "stateMutability": "view",
      "type": "function"
    }
  ],
  "bytecode": "0x6080604052600a60045534801561001557600080fd5b50336000806101000a81548173ffffffffffffffffffffffffffffffffffffffff021916908373ffffffffffffffffffffffffffffffffffffffff1602179055506130a1806100656000396000f3fe608060405234801561001057600080fd5b506004361061010b5760003560e01c80636e9960c3116100a2578063d330c29a11610071578063d330c29a146102aa578063d473933f146102c6578063f390dd86146102f6578063f851a44014610312578063f89e8c00146103305761010b565b80636e9960c3146102205780637db3c1331461023e57806383c4b7a31461025c578063b63bc3b41461028c5761010b565b80632b598282116100de5780632b5982821461019c5780634ccc9852146101b85780635664d69c146101d457806368c89785146101f05761010b565b806309e69ede146101105780630a7069fb14610144578063195ec9ee146101605780631e4f24791461017e575b600080fd5b61012a60048036038101906101259190612317565b610364565b60405161013b959493929190612a12565b60405180910390f35b61015e60048036038101906101599190612340565b610673565b005b610168610876565b6040516101759190612975565b60405180910390f35b610186610af1565b6040516101939190612b53565b60405180910390f35b6101b660048036038101906101b1919061237c565b610af7565b005b6101d260048036038101906101cd9190612473565b610dbe565b005b6101ee60048036038101906101e991906123cb565b6112b7565b005b61020a60048036038101906102059190612340565b611913565b6040516102179190612997565b60405180910390f35b610228611a7f565b60405161023591906128f9565b60405180910390f35b610246611aa8565b6040516102539190612b53565b60405180910390f35b6102766004803603810190610271919061244a565b611ab5565b60405161028391906128f9565b60405180910390f35b610294611af4565b6040516102a19190612b53565b60405180910390f35b6102c460048036038101906102bf919061244a565b611b90565b005b6102e060048036038101906102db9190612340565b611c28565b6040516102ed91906129b2565b60405180910390f35b610310600480360381019061030b9190612317565b611cbf565b005b61031a611d25565b60405161032791906128f9565b60405180910390f35b61034a60048036038101906103459190612317565b611d49565b60405161035b959493929190612914565b60405180910390f35b60608060008060008073ffffffffffffffffffffffffffffffffffffffff168673ffffffffffffffffffffffffffffffffffffffff1614156103db576040517f08c379a00000000000000000000000000000000000000000000000000000000081526004016103d290612ad3565b60405180910390fd5b600260008773ffffffffffffffffffffffffffffffffffffffff1673ffffffffffffffffffffffffffffffffffffffff168152602001908152602001600020600101600260008873ffffffffffffffffffffffffffffffffffffffff1673ffffffffffffffffffffffffffffffffffffffff168152602001908152602001600020600201600260008973ffffffffffffffffffffffffffffffffffffffff1673ffffffffffffffffffffffffffffffffffffffff16815260200190815260200160002060000160009054906101000a900473ffffffffffffffffffffffffffffffffffffffff16600260008a73ffffffffffffffffffffffffffffffffffffffff1673ffffffffffffffffffffffffffffffffffffffff16815260200190815260200160002060030154600260008b73ffffffffffffffffffffffffffffffffffffffff1673ffffffffffffffffffffffffffffffffffffffff1681526020019081526020016000206004015484805461055490612ede565b80601f016020809104026020016040519081016040528092919081815260200182805461058090612ede565b80156105cd5780601f106105a2576101008083540402835291602001916105cd565b820191906000526020600020905b8154815290600101906020018083116105b057829003601f168201915b505050505094508380546105e090612ede565b80601f016020809104026020016040519081016040528092919081815260200182805461060c90612ede565b80156106595780601f1061062e57610100808354040283529160200191610659565b820191906000526020600020905b81548152906001019060200180831161063c57829003601f168201915b505050505093509450945094509450945091939590929450565b8061067d81611eaf565b6106bc576040517f08c379a00000000000000000000000000000000000000000000000000000000081526004016106b390612b13565b60405180910390fd5b60006106c784611f84565b90506001808281548110610704577f4e487b7100000000000000000000000000000000000000000000000000000000600052603260045260246000fd5b906000526020600020906005020160030160008282546107249190612c35565b9250508190555060018181548110610765577f4e487b7100000000000000000000000000000000000000000000000000000000600052603260045260246000fd5b9060005260206000209060050201600260008673ffffffffffffffffffffffffffffffffffffffff1673ffffffffffffffffffffffffffffffffffffffff1681526020019081526020016000206000820160009054906101000a900473ffffffffffffffffffffffffffffffffffffffff168160000160006101000a81548173ffffffffffffffffffffffffffffffffffffffff021916908373ffffffffffffffffffffffffffffffffffffffff160217905550600182018160010190805461082d90612ede565b610838929190612140565b50600282018160020190805461084d90612ede565b610858929190612140565b50600382015481600301556004820154816004015590505050505050565b606060008054906101000a900473ffffffffffffffffffffffffffffffffffffffff1673ffffffffffffffffffffffffffffffffffffffff163373ffffffffffffffffffffffffffffffffffffffff1614610906576040517f08c379a00000000000000000000000000000000000000000000000000000000081526004016108fd90612b33565b60405180910390fd5b6001805480602002602001604051908101604052809291908181526020016000905b82821015610ae857838290600052602060002090600502016040518060a00160405290816000820160009054906101000a900473ffffffffffffffffffffffffffffffffffffffff1673ffffffffffffffffffffffffffffffffffffffff1673ffffffffffffffffffffffffffffffffffffffff1681526020016001820180546109b190612ede565b80601f01602080910402602001604051908101604052809291908181526020018280546109dd90612ede565b8015610a2a5780601f106109ff57610100808354040283529160200191610a2a565b820191906000526020600020905b815481529060010190602001808311610a0d57829003601f168201915b50505050508152602001600282018054610a4390612ede565b80601f0160208091040260200160405190810160405280929190818152602001828054610a6f90612ede565b8015610abc5780601f10610a9157610100808354040283529160200191610abc565b820191906000526020600020905b815481529060010190602001808311610a9f57829003601f168201915b505050505081526020016003820154815260200160048201548152505081526020019060010190610928565b50505050905090565b60045481565b80610b0181611eaf565b610b40576040517f08c379a0000000000000000000000000000000000000000000000000000000008152600401610b3790612b13565b60405180910390fd5b6000610b4b84611f84565b9050600060018281548110610b89577f4e487b7100000000000000000000000000000000000000000000000000000000600052603260045260246000fd5b9060005260206000209060050201600401549050600060018381548110610bd9577f4e487b7100000000000000000000000000000000000000000000000000000000600052603260045260246000fd5b90600052602060002090600502016003015490506000600182610bfc9190612c35565b888385610c099190612d33565b610c139190612c35565b610c1d9190612cc9565b90508060018581548110610c5a577f4e487b7100000000000000000000000000000000000000000000000000000000600052603260045260246000fd5b90600052602060002090600502016004018190555060018481548110610ca9577f4e487b7100000000000000000000000000000000000000000000000000000000600052603260045260246000fd5b9060005260206000209060050201600260008973ffffffffffffffffffffffffffffffffffffffff1673ffffffffffffffffffffffffffffffffffffffff1681526020019081526020016000206000820160009054906101000a900473ffffffffffffffffffffffffffffffffffffffff168160000160006101000a81548173ffffffffffffffffffffffffffffffffffffffff021916908373ffffffffffffffffffffffffffffffffffffffff1602179055506001820181600101908054610d7190612ede565b610d7c929190612140565b506002820181600201908054610d9190612ede565b610d9c929190612140565b5060038201548160030155600482015481600401559050505050505050505050565b60008054906101000a900473ffffffffffffffffffffffffffffffffffffffff1673ffffffffffffffffffffffffffffffffffffffff163373ffffffffffffffffffffffffffffffffffffffff1614610e4c576040517f08c379a0000000000000000000000000000000000000000000000000000000008152600401610e4390612b33565b60405180910390fd5b8373ffffffffffffffffffffffffffffffffffffffff168373ffffffffffffffffffffffffffffffffffffffff1614610f5f5760001515610e8c84612095565b15151415610f23578260018881548110610ecf577f4e487b7100000000000000000000000000000000000000000000000000000000600052603260045260246000fd5b906000526020600020906005020160000160006101000a81548173ffffffffffffffffffffffffffffffffffffffff021916908373ffffffffffffffffffffffffffffffffffffffff160217905550610f5e565b6040517f08c379a0000000000000000000000000000000000000000000000000000000008152600401610f5590612ab3565b60405180910390fd5b5b8560018881548110610f9a577f4e487b7100000000000000000000000000000000000000000000000000000000600052603260045260246000fd5b90600052602060002090600502016001019080519060200190610fbe9291906121cd565b508460018881548110610ffa577f4e487b7100000000000000000000000000000000000000000000000000000000600052603260045260246000fd5b9060005260206000209060050201600201908051906020019061101e9291906121cd565b50816001888154811061105a577f4e487b7100000000000000000000000000000000000000000000000000000000600052603260045260246000fd5b90600052602060002090600502016003018190555080600188815481106110aa577f4e487b7100000000000000000000000000000000000000000000000000000000600052603260045260246000fd5b906000526020600020906005020160040181905550600187815481106110f9577f4e487b7100000000000000000000000000000000000000000000000000000000600052603260045260246000fd5b90600052602060002090600502016002600060018a81548110611145577f4e487b7100000000000000000000000000000000000000000000000000000000600052603260045260246000fd5b906000526020600020906005020160000160009054906101000a900473ffffffffffffffffffffffffffffffffffffffff1673ffffffffffffffffffffffffffffffffffffffff1673ffffffffffffffffffffffffffffffffffffffff1681526020019081526020016000206000820160009054906101000a900473ffffffffffffffffffffffffffffffffffffffff168160000160006101000a81548173ffffffffffffffffffffffffffffffffffffffff021916908373ffffffffffffffffffffffffffffffffffffffff160217905550600182018160010190805461122c90612ede565b611237929190612140565b50600282018160020190805461124c90612ede565b611257929190612140565b5060038201548160030155600482015481600401559050507f1d5d3088b57f5506ba4cd671e6ecf4ad9509171e516f0a3fff12221424fa124286868585856040516112a6959493929190612a12565b60405180910390a150505050505050565b600073ffffffffffffffffffffffffffffffffffffffff168173ffffffffffffffffffffffffffffffffffffffff161415611327576040517f08c379a000000000000000000000000000000000000000000000000000000000815260040161131e90612ad3565b60405180910390fd5b600073ffffffffffffffffffffffffffffffffffffffff16600260008373ffffffffffffffffffffffffffffffffffffffff1673ffffffffffffffffffffffffffffffffffffffff16815260200190815260200160002060000160009054906101000a900473ffffffffffffffffffffffffffffffffffffffff1673ffffffffffffffffffffffffffffffffffffffff16146116aa5760006113c882611f84565b90508360018281548110611405577f4e487b7100000000000000000000000000000000000000000000000000000000600052603260045260246000fd5b906000526020600020906005020160010190805190602001906114299291906121cd565b508260018281548110611465577f4e487b7100000000000000000000000000000000000000000000000000000000600052603260045260246000fd5b906000526020600020906005020160020190805190602001906114899291906121cd565b50600181815481106114c4577f4e487b7100000000000000000000000000000000000000000000000000000000600052603260045260246000fd5b9060005260206000209060050201600260008473ffffffffffffffffffffffffffffffffffffffff1673ffffffffffffffffffffffffffffffffffffffff1681526020019081526020016000206000820160009054906101000a900473ffffffffffffffffffffffffffffffffffffffff168160000160006101000a81548173ffffffffffffffffffffffffffffffffffffffff021916908373ffffffffffffffffffffffffffffffffffffffff160217905550600182018160010190805461158c90612ede565b611597929190612140565b5060028201816002019080546115ac90612ede565b6115b7929190612140565b5060038201548160030155600482015481600401559050507f1d5d3088b57f5506ba4cd671e6ecf4ad9509171e516f0a3fff12221424fa12428484846001858154811061162d577f4e487b7100000000000000000000000000000000000000000000000000000000600052603260045260246000fd5b90600052602060002090600502016003015460018681548110611679577f4e487b7100000000000000000000000000000000000000000000000000000000600052603260045260246000fd5b90600052602060002090600502016004015460405161169c959493929190612a12565b60405180910390a15061190e565b600454600180549050106116f3576040517f08c379a00000000000000000000000000000000000000000000000000000000081526004016116ea90612a73565b60405180910390fd5b60006040518060a001604052808373ffffffffffffffffffffffffffffffffffffffff1681526020018581526020018481526020016000815260200160008152509050600181908060018154018082558091505060019003906000526020600020906005020160009091909190915060008201518160000160006101000a81548173ffffffffffffffffffffffffffffffffffffffff021916908373ffffffffffffffffffffffffffffffffffffffff16021790555060208201518160010190805190602001906117c59291906121cd565b5060408201518160020190805190602001906117e29291906121cd565b506060820151816003015560808201518160040155505080600260008473ffffffffffffffffffffffffffffffffffffffff1673ffffffffffffffffffffffffffffffffffffffff16815260200190815260200160002060008201518160000160006101000a81548173ffffffffffffffffffffffffffffffffffffffff021916908373ffffffffffffffffffffffffffffffffffffffff160217905550602082015181600101908051906020019061189c9291906121cd565b5060408201518160020190805190602001906118b99291906121cd565b5060608201518160030155608082015181600401559050507f2fc6a6d8067b97a8ada8413b6928be94cb5a608a65000d93fc7cf9f3a9785990848484604051611904939291906129cd565b60405180910390a1505b505050565b60008161191f81611eaf565b61195e576040517f08c379a000000000000000000000000000000000000000000000000000000000815260040161195590612b13565b60405180910390fd5b6000600180549050116119a6576040517f08c379a000000000000000000000000000000000000000000000000000000000815260040161199d90612af3565b60405180910390fd5b60005b600180549050811015611a72578473ffffffffffffffffffffffffffffffffffffffff1660018281548110611a07577f4e487b7100000000000000000000000000000000000000000000000000000000600052603260045260246000fd5b906000526020600020906005020160000160009054906101000a900473ffffffffffffffffffffffffffffffffffffffff1673ffffffffffffffffffffffffffffffffffffffff161415611a5f576001925050611a78565b8080611a6a90612f10565b9150506119a9565b50600091505b5092915050565b60008060009054906101000a900473ffffffffffffffffffffffffffffffffffffffff16905090565b6000600380549050905090565b60038181548110611ac557600080fd5b906000526020600020016000915054906101000a900473ffffffffffffffffffffffffffffffffffffffff1681565b60008060009054906101000a900473ffffffffffffffffffffffffffffffffffffffff1673ffffffffffffffffffffffffffffffffffffffff163373ffffffffffffffffffffffffffffffffffffffff1614611b85576040517f08c379a0000000000000000000000000000000000000000000000000000000008152600401611b7c90612b33565b60405180910390fd5b600180549050905090565b60008054906101000a900473ffffffffffffffffffffffffffffffffffffffff1673ffffffffffffffffffffffffffffffffffffffff163373ffffffffffffffffffffffffffffffffffffffff1614611c1e576040517f08c379a0000000000000000000000000000000000000000000000000000000008152600401611c1590612b33565b60405180910390fd5b8060048190555050565b600081611c3481611eaf565b611c73576040517f08c379a0000000000000000000000000000000000000000000000000000000008152600401611c6a90612b13565b60405180910390fd5b600260008573ffffffffffffffffffffffffffffffffffffffff1673ffffffffffffffffffffffffffffffffffffffff1681526020019081526020016000206004015491505092915050565b6003819080600181540180825580915050600190039060005260206000200160009091909190916101000a81548173ffffffffffffffffffffffffffffffffffffffff021916908373ffffffffffffffffffffffffffffffffffffffff16021790555050565b60008054906101000a900473ffffffffffffffffffffffffffffffffffffffff1681565b60026020528060005260406000206000915090508060000160009054906101000a900473ffffffffffffffffffffffffffffffffffffffff1690806001018054611d9290612ede565b80601f0160208091040260200160405190810160405280929190818152602001828054611dbe90612ede565b8015611e0b5780601f10611de057610100808354040283529160200191611e0b565b820191906000526020600020905b815481529060010190602001808311611dee57829003601f168201915b505050505090806002018054611e2090612ede565b80601f0160208091040260200160405190810160405280929190818152602001828054611e4c90612ede565b8015611e995780601f10611e6e57610100808354040283529160200191611e99565b820191906000526020600020905b815481529060010190602001808311611e7c57829003601f168201915b5050505050908060030154908060040154905085565b600080600090505b600380549050811015611f79578273ffffffffffffffffffffffffffffffffffffffff1660038281548110611f15577f4e487b7100000000000000000000000000000000000000000000000000000000600052603260045260246000fd5b9060005260206000200160009054906101000a900473ffffffffffffffffffffffffffffffffffffffff1673ffffffffffffffffffffffffffffffffffffffff161415611f66576001915050611f7f565b8080611f7190612f10565b915050611eb7565b50600090505b919050565b600080600090505b600180549050811015612054578273ffffffffffffffffffffffffffffffffffffffff1660018281548110611fea577f4e487b7100000000000000000000000000000000000000000000000000000000600052603260045260246000fd5b906000526020600020906005020160000160009054906101000a900473ffffffffffffffffffffffffffffffffffffffff1673ffffffffffffffffffffffffffffffffffffffff1614156120415780915050612090565b808061204c90612f10565b915050611f8c565b506040517f08c379a000000000000000000000000000000000000000000000000000000000815260040161208790612a93565b60405180910390fd5b919050565b60008073ffffffffffffffffffffffffffffffffffffffff16600260008473ffffffffffffffffffffffffffffffffffffffff1673ffffffffffffffffffffffffffffffffffffffff16815260200190815260200160002060000160009054906101000a900473ffffffffffffffffffffffffffffffffffffffff1673ffffffffffffffffffffffffffffffffffffffff161415612136576000905061213b565b600190505b919050565b82805461214c90612ede565b90600052602060002090601f01602090048101928261216e57600085556121bc565b82601f1061217f57805485556121bc565b828001600101855582156121bc57600052602060002091601f016020900482015b828111156121bb5782548255916001019190600101906121a0565b5b5090506121c99190612253565b5090565b8280546121d990612ede565b90600052602060002090601f0160209004810192826121fb5760008555612242565b82601f1061221457805160ff1916838001178555612242565b82800160010185558215612242579182015b82811115612241578251825591602001919060010190612226565b5b50905061224f9190612253565b5090565b5b8082111561226c576000816000905550600101612254565b5090565b600061228361227e84612b9f565b612b6e565b90508281526020810184848401111561229b57600080fd5b6122a6848285612e9c565b509392505050565b6000813590506122bd81613026565b92915050565b6000813590506122d28161303d565b92915050565b600082601f8301126122e957600080fd5b81356122f9848260208601612270565b91505092915050565b60008135905061231181613054565b92915050565b60006020828403121561232957600080fd5b6000612337848285016122ae565b91505092915050565b6000806040838503121561235357600080fd5b6000612361858286016122ae565b9250506020612372858286016122ae565b9150509250929050565b60008060006060848603121561239157600080fd5b600061239f868287016122c3565b93505060206123b0868287016122ae565b92505060406123c1868287016122ae565b9150509250925092565b6000806000606084860312156123e057600080fd5b600084013567ffffffffffffffff8111156123fa57600080fd5b612406868287016122d8565b935050602084013567ffffffffffffffff81111561242357600080fd5b61242f868287016122d8565b9250506040612440868287016122ae565b9150509250925092565b60006020828403121561245c57600080fd5b600061246a84828501612302565b91505092915050565b600080600080600080600060e0888a03121561248e57600080fd5b600061249c8a828b01612302565b975050602088013567ffffffffffffffff8111156124b957600080fd5b6124c58a828b016122d8565b965050604088013567ffffffffffffffff8111156124e257600080fd5b6124ee8a828b016122d8565b95505060606124ff8a828b016122ae565b94505060806125108a828b016122ae565b93505060a06125218a828b016122c3565b92505060c06125328a828b016122c3565b91505092959891949750929550565b600061254d838361286d565b905092915050565b61255e81612e4a565b82525050565b61256d81612e4a565b82525050565b600061257e82612bdf565b6125888185612c02565b93508360208202850161259a85612bcf565b8060005b858110156125d657848403895281516125b78582612541565b94506125c283612bf5565b925060208a0199505060018101905061259e565b50829750879550505050505092915050565b6125f181612e5c565b82525050565b61260081612e68565b82525050565b61260f81612e68565b82525050565b600061262082612bea565b61262a8185612c13565b935061263a818560208601612eab565b61264381613015565b840191505092915050565b600061265982612bea565b6126638185612c24565b9350612673818560208601612eab565b61267c81613015565b840191505092915050565b6000612694601883612c24565b91507f496e76616c6964206d6178207061727469636970616e742100000000000000006000830152602082019050919050565b60006126d4602183612c24565b91507f4e6f7420666f756e64207061727469636970616e74206279206163636f756e7460008301527f21000000000000000000000000000000000000000000000000000000000000006020830152604082019050919050565b600061273a601683612c24565b91507f4163636f756e7420686173206265656e207573656421000000000000000000006000830152602082019050919050565b600061277a601083612c24565b91507f496e76616c6964206164647265737321000000000000000000000000000000006000830152602082019050919050565b60006127ba600f83612c24565b91507f4e6f205061727469636970616e742100000000000000000000000000000000006000830152602082019050919050565b60006127fa601383612c24565b91507f4e6f74206578697374732073657373696f6e21000000000000000000000000006000830152602082019050919050565b600061283a600a83612c24565b91507f4e6f74206f776e657221000000000000000000000000000000000000000000006000830152602082019050919050565b600060a0830160008301516128856000860182612555565b506020830151848203602086015261289d8282612615565b915050604083015184820360408601526128b78282612615565b91505060608301516128cc60608601826125f7565b5060808301516128df60808601826125f7565b508091505092915050565b6128f381612e92565b82525050565b600060208201905061290e6000830184612564565b92915050565b600060a0820190506129296000830188612564565b818103602083015261293b818761264e565b9050818103604083015261294f818661264e565b905061295e6060830185612606565b61296b6080830184612606565b9695505050505050565b6000602082019050818103600083015261298f8184612573565b905092915050565b60006020820190506129ac60008301846125e8565b92915050565b60006020820190506129c76000830184612606565b92915050565b600060608201905081810360008301526129e7818661264e565b905081810360208301526129fb818561264e565b9050612a0a6040830184612564565b949350505050565b600060a0820190508181036000830152612a2c818861264e565b90508181036020830152612a40818761264e565b9050612a4f6040830186612564565b612a5c6060830185612606565b612a696080830184612606565b9695505050505050565b60006020820190508181036000830152612a8c81612687565b9050919050565b60006020820190508181036000830152612aac816126c7565b9050919050565b60006020820190508181036000830152612acc8161272d565b9050919050565b60006020820190508181036000830152612aec8161276d565b9050919050565b60006020820190508181036000830152612b0c816127ad565b9050919050565b60006020820190508181036000830152612b2c816127ed565b9050919050565b60006020820190508181036000830152612b4c8161282d565b9050919050565b6000602082019050612b6860008301846128ea565b92915050565b6000604051905081810181811067ffffffffffffffff82111715612b9557612b94612fe6565b5b8060405250919050565b600067ffffffffffffffff821115612bba57612bb9612fe6565b5b601f19601f8301169050602081019050919050565b6000819050602082019050919050565b600081519050919050565b600081519050919050565b6000602082019050919050565b600082825260208201905092915050565b600082825260208201905092915050565b600082825260208201905092915050565b6000612c4082612e68565b9150612c4b83612e68565b9250817f7fffffffffffffffffffffffffffffffffffffffffffffffffffffffffffffff03831360008312151615612c8657612c85612f59565b5b817f8000000000000000000000000000000000000000000000000000000000000000038312600083121615612cbe57612cbd612f59565b5b828201905092915050565b6000612cd482612e68565b9150612cdf83612e68565b925082612cef57612cee612f88565b5b600160000383147f800000000000000000000000000000000000000000000000000000000000000083141615612d2857612d27612f59565b5b828205905092915050565b6000612d3e82612e68565b9150612d4983612e68565b9250827f7fffffffffffffffffffffffffffffffffffffffffffffffffffffffffffffff0482116000841360008413161615612d8857612d87612f59565b5b817f80000000000000000000000000000000000000000000000000000000000000000583126000841260008413161615612dc557612dc4612f59565b5b827f80000000000000000000000000000000000000000000000000000000000000000582126000841360008412161615612e0257612e01612f59565b5b827f7fffffffffffffffffffffffffffffffffffffffffffffffffffffffffffffff0582126000841260008412161615612e3f57612e3e612f59565b5b828202905092915050565b6000612e5582612e72565b9050919050565b60008115159050919050565b6000819050919050565b600073ffffffffffffffffffffffffffffffffffffffff82169050919050565b6000819050919050565b82818337600083830152505050565b60005b83811015612ec9578082015181840152602081019050612eae565b83811115612ed8576000848401525b50505050565b60006002820490506001821680612ef657607f821691505b60208210811415612f0a57612f09612fb7565b5b50919050565b6000612f1b82612e92565b91507fffffffffffffffffffffffffffffffffffffffffffffffffffffffffffffffff821415612f4e57612f4d612f59565b5b600182019050919050565b7f4e487b7100000000000000000000000000000000000000000000000000000000600052601160045260246000fd5b7f4e487b7100000000000000000000000000000000000000000000000000000000600052601260045260246000fd5b7f4e487b7100000000000000000000000000000000000000000000000000000000600052602260045260246000fd5b7f4e487b7100000000000000000000000000000000000000000000000000000000600052604160045260246000fd5b6000601f19601f8301169050919050565b61302f81612e4a565b811461303a57600080fd5b50565b61304681612e68565b811461305157600080fd5b50565b61305d81612e92565b811461306857600080fd5b5056fea264697066735822122067a773ebf25066d2ff77e929263f89e80a0d113d7b5e1b4f90cc9ecb37354df364736f6c63430008000033",
  "immutableReferences": {},
  "source": "// SPDX-License-Identifier: MIT\npragma solidity ^0.8.0;\n\nimport \"./Session.sol\";\n\ncontract Main is IMain {\n    // Structure to hold details of Bidder\n    struct IParticipant {\n        // TODO\n        address account;\n        string fullname;\n        string email;\n        int nSessions;\n        int deviation;\n    }\n\n    address public admin;\n\n    // TODO: Variables\n    IParticipant[] internal _iParticipants;\n    mapping (address => IParticipant) public _mpParticipants;\n\n    address[] public sessions;\n    uint public maxParticipant = 10;\n\n    event RegisterParticipant(string fullname, string email, address account);\n    event UpdateParticipant(string fullname, string email, address account, int nSessions, int deviation);\n\n    constructor() {\n        admin = msg.sender;\n    }\n\n    modifier onlyAdmin() {\n        require(msg.sender == admin, \"Not owner!\");\n        _;\n    }\n\n    modifier onlySession(address session) {\n        require(_checkSession(session),  \"Not exists session!\");\n        _;\n    }\n\n    function _checkSession(address session) internal view returns (bool) {\n        for(uint i = 0; i < sessions.length; i++) {\n            if(sessions[i] == session)\n                return true;\n        }\n        return false;\n    }\n\n    function getAdmin() public view returns(address) {\n        return admin;\n    }\n\n    // TODO: Functions\n    function register(string memory fullname, string memory email, address account) public {\n        require(account != address(0), \"Invalid address!\");\n\n        if(_mpParticipants[account].account != address(0)) {\n            uint index = _getIndexParticipantByAccount(account);\n            _iParticipants[index].fullname = fullname;\n            _iParticipants[index].email = email;\n            _mpParticipants[account] = _iParticipants[index];\n\n            emit UpdateParticipant(fullname, email, account, _iParticipants[index].nSessions, _iParticipants[index].deviation);\n            return;\n        }\n        require(_iParticipants.length < maxParticipant, \"Invalid max participant!\");\n        IParticipant memory iParticipant = IParticipant(account, fullname, email, 0, 0);\n        _iParticipants.push(iParticipant);\n        _mpParticipants[account] = iParticipant;\n\n        emit RegisterParticipant(fullname, email, account);\n    }\n\n    function updateMaxParticipant(uint _max) public onlyAdmin {\n        maxParticipant = _max;\n    }\n\n    function participants(address addr) public view returns(string memory fullname, string memory email, address account, int nSessions, int deviation) {\n        require(addr != address(0), \"Invalid address!\");\n        return (\n            _mpParticipants[addr].fullname,\n            _mpParticipants[addr].email,\n            _mpParticipants[addr].account,\n            _mpParticipants[addr].nSessions,\n            _mpParticipants[addr].deviation\n        );\n    }\n\n    function getAllParticipants() public view onlyAdmin returns (IParticipant[] memory) {\n        return _iParticipants;\n    }\n\n    function getDeviationOfParticipant(address account, address session) public view onlySession(session) returns (int) {\n        return _mpParticipants[account].deviation;\n    }\n\n    function updateParticipantByIndex(uint index, string memory fullname, string memory email, address accountOld, address accountNew\n    , int nSessions, int deviation) public onlyAdmin {\n        if(accountNew != accountOld) {\n            if(_checkAddressHasExists(accountNew) == false) \n                _iParticipants[index].account = accountNew;\n            else\n                revert(\"Account has been used!\");\n        }\n        _iParticipants[index].fullname = fullname;\n        _iParticipants[index].email = email;\n        _iParticipants[index].nSessions = nSessions;\n        _iParticipants[index].deviation = deviation;\n        _mpParticipants[_iParticipants[index].account] = _iParticipants[index];\n\n        emit UpdateParticipant(fullname, email, accountNew, nSessions, deviation);\n    }\n\n    function _checkAddressHasExists(address addr) internal view returns (bool) {\n        if(_mpParticipants[addr].account == address(0))\n            return false;\n        return true;\n    }\n\n    function _getIndexParticipantByAccount(address account) internal view returns (uint) {\n        for(uint i = 0; i < _iParticipants.length; i++) {\n            if(_iParticipants[i].account == account)\n                return i;\n        }\n        revert(\"Not found participant by account!\");\n    }\n\n    function nParticipants() public onlyAdmin view returns (uint) {\n        return _iParticipants.length;\n    }\n\n    function addSession(address session) external override {\n        sessions.push(session);\n    }\n\n    function getNumberSession() public view returns (uint) {\n        return sessions.length;\n    }\n\n    function updateNumberOfPricingSessionByAccount(address account, address session) public onlySession(session) {\n        uint index = _getIndexParticipantByAccount(account);\n        _iParticipants[index].nSessions += 1;\n        _mpParticipants[account] = _iParticipants[index];\n    }\n\n    function caculatorAccumulatedDeviation(int newDeviation, address account, address session) public onlySession(session) {\n        uint index = _getIndexParticipantByAccount(account);\n        int currentDeviation = _iParticipants[index].deviation;\n        int nParticipant = _iParticipants[index].nSessions;\n        int deviation = ((currentDeviation * nParticipant + newDeviation) / (nParticipant + 1));\n        \n        _iParticipants[index].deviation = deviation;\n        _mpParticipants[account] = _iParticipants[index];\n    }\n\n    function checkAccountHasExists(address account, address session) public view onlySession(session) returns (bool) {\n        require(_iParticipants.length > 0, \"No Participant!\");\n        for(uint i = 0; i < _iParticipants.length; i++) {\n            if(_iParticipants[i].account == account)\n                return true;\n        }\n        return false;\n    }\n}\n",
  "sourcePath": "E:\\Company\\SmartContract\\FunixPricingChain\\FunixPricingChain\\truffle\\contracts\\Main.sol",
  "compiler": {
    "name": "solc",
    "version": "0.8.0+commit.c7dfd78e.Emscripten.clang"
  },
  "schemaVersion": "3.4.14",
  "updatedAt": "2023-08-10T03:42:58.489Z",
  "devdoc": {
    "kind": "dev",
    "methods": {},
    "version": 1
  },
  "userdoc": {
    "kind": "user",
    "methods": {},
    "version": 1
  }
}