{
  "contractName": "Session",
  "abi": [
    {
      "inputs": [
        {
          "internalType": "address",
          "name": "_mainContract",
          "type": "address"
        },
        {
          "internalType": "string",
          "name": "name",
          "type": "string"
        },
        {
          "internalType": "string",
          "name": "description",
          "type": "string"
        },
        {
          "internalType": "string",
          "name": "image",
          "type": "string"
        }
      ],
      "stateMutability": "nonpayable",
      "type": "constructor"
    },
    {
      "anonymous": false,
      "inputs": [
        {
          "indexed": false,
          "internalType": "string",
          "name": "name",
          "type": "string"
        },
        {
          "indexed": false,
          "internalType": "address",
          "name": "session",
          "type": "address"
        },
        {
          "indexed": false,
          "internalType": "string",
          "name": "description",
          "type": "string"
        },
        {
          "indexed": false,
          "internalType": "string",
          "name": "image",
          "type": "string"
        },
        {
          "indexed": false,
          "internalType": "enum Session.State",
          "name": "state",
          "type": "uint8"
        }
      ],
      "name": "createProduct",
      "type": "event"
    },
    {
      "anonymous": false,
      "inputs": [
        {
          "indexed": false,
          "internalType": "address",
          "name": "session",
          "type": "address"
        },
        {
          "indexed": false,
          "internalType": "address",
          "name": "account",
          "type": "address"
        },
        {
          "indexed": false,
          "internalType": "int256",
          "name": "price",
          "type": "int256"
        }
      ],
      "name": "registerParticipant",
      "type": "event"
    },
    {
      "anonymous": false,
      "inputs": [
        {
          "indexed": false,
          "internalType": "string",
          "name": "name",
          "type": "string"
        },
        {
          "indexed": false,
          "internalType": "address",
          "name": "session",
          "type": "address"
        },
        {
          "indexed": false,
          "internalType": "string",
          "name": "description",
          "type": "string"
        },
        {
          "indexed": false,
          "internalType": "string",
          "name": "image",
          "type": "string"
        },
        {
          "indexed": false,
          "internalType": "enum Session.State",
          "name": "state",
          "type": "uint8"
        }
      ],
      "name": "updateProduct",
      "type": "event"
    },
    {
      "anonymous": false,
      "inputs": [
        {
          "indexed": false,
          "internalType": "address",
          "name": "session",
          "type": "address"
        },
        {
          "indexed": false,
          "internalType": "enum Session.State",
          "name": "state",
          "type": "uint8"
        }
      ],
      "name": "updateStatePricingSession",
      "type": "event"
    },
    {
      "inputs": [],
      "name": "state",
      "outputs": [
        {
          "internalType": "enum Session.State",
          "name": "",
          "type": "uint8"
        }
      ],
      "stateMutability": "view",
      "type": "function"
    },
    {
      "inputs": [],
      "name": "getProduct",
      "outputs": [
        {
          "components": [
            {
              "internalType": "address",
              "name": "session",
              "type": "address"
            },
            {
              "internalType": "string",
              "name": "name",
              "type": "string"
            },
            {
              "internalType": "string",
              "name": "description",
              "type": "string"
            },
            {
              "internalType": "string",
              "name": "image",
              "type": "string"
            },
            {
              "internalType": "int256",
              "name": "proposedPrice",
              "type": "int256"
            },
            {
              "internalType": "int256",
              "name": "finalPrice",
              "type": "int256"
            },
            {
              "internalType": "enum Session.State",
              "name": "state",
              "type": "uint8"
            }
          ],
          "internalType": "struct Session.IProduct",
          "name": "",
          "type": "tuple"
        }
      ],
      "stateMutability": "view",
      "type": "function"
    },
    {
      "inputs": [
        {
          "internalType": "string",
          "name": "name",
          "type": "string"
        },
        {
          "internalType": "string",
          "name": "description",
          "type": "string"
        },
        {
          "internalType": "string",
          "name": "image",
          "type": "string"
        }
      ],
      "name": "updateSession",
      "outputs": [],
      "stateMutability": "nonpayable",
      "type": "function"
    },
    {
      "inputs": [],
      "name": "startPricingSession",
      "outputs": [],
      "stateMutability": "nonpayable",
      "type": "function"
    },
    {
      "inputs": [],
      "name": "stopPricingSession",
      "outputs": [],
      "stateMutability": "nonpayable",
      "type": "function"
    },
    {
      "inputs": [],
      "name": "closePricingSession",
      "outputs": [],
      "stateMutability": "nonpayable",
      "type": "function"
    },
    {
      "inputs": [
        {
          "internalType": "uint256",
          "name": "timeout",
          "type": "uint256"
        }
      ],
      "name": "setTimeout",
      "outputs": [],
      "stateMutability": "nonpayable",
      "type": "function"
    },
    {
      "inputs": [
        {
          "internalType": "address",
          "name": "account",
          "type": "address"
        },
        {
          "internalType": "int256",
          "name": "price",
          "type": "int256"
        }
      ],
      "name": "setProposedPrice",
      "outputs": [
        {
          "internalType": "bool",
          "name": "",
          "type": "bool"
        }
      ],
      "stateMutability": "nonpayable",
      "type": "function"
    },
    {
      "inputs": [
        {
          "internalType": "int256",
          "name": "finalPrice",
          "type": "int256"
        }
      ],
      "name": "setFinalPrice",
      "outputs": [],
      "stateMutability": "nonpayable",
      "type": "function"
    },
    {
      "inputs": [],
      "name": "getAllParticipantsOfSession",
      "outputs": [
        {
          "components": [
            {
              "internalType": "address",
              "name": "account",
              "type": "address"
            },
            {
              "internalType": "int256",
              "name": "price",
              "type": "int256"
            },
            {
              "internalType": "int256",
              "name": "deviation",
              "type": "int256"
            }
          ],
          "internalType": "struct Session.Participant[]",
          "name": "",
          "type": "tuple[]"
        }
      ],
      "stateMutability": "view",
      "type": "function"
    },
    {
      "inputs": [],
      "name": "getParticipantWinner",
      "outputs": [
        {
          "components": [
            {
              "internalType": "address",
              "name": "account",
              "type": "address"
            },
            {
              "internalType": "int256",
              "name": "price",
              "type": "int256"
            },
            {
              "internalType": "int256",
              "name": "deviation",
              "type": "int256"
            }
          ],
          "internalType": "struct Session.Participant",
          "name": "",
          "type": "tuple"
        }
      ],
      "stateMutability": "view",
      "type": "function"
    }
  ],
  "bytecode": "0x60806040523480156200001157600080fd5b5060405162003b3038038062003b308339818101604052810190620000379190620005c3565b836000806101000a81548173ffffffffffffffffffffffffffffffffffffffff021916908373ffffffffffffffffffffffffffffffffffffffff16021790555083600160006101000a81548173ffffffffffffffffffffffffffffffffffffffff021916908373ffffffffffffffffffffffffffffffffffffffff1602179055506000600160146101000a81548160ff0219169083600481111562000105577f4e487b7100000000000000000000000000000000000000000000000000000000600052602160045260246000fd5b021790555030600c60006101000a81548173ffffffffffffffffffffffffffffffffffffffff021916908373ffffffffffffffffffffffffffffffffffffffff160217905550600160009054906101000a900473ffffffffffffffffffffffffffffffffffffffff1673ffffffffffffffffffffffffffffffffffffffff1663f390dd86600c60009054906101000a900473ffffffffffffffffffffffffffffffffffffffff166040518263ffffffff1660e01b8152600401620001ca9190620006dd565b600060405180830381600087803b158015620001e557600080fd5b505af1158015620001fa573d6000803e3d6000fd5b50505050600160009054906101000a900473ffffffffffffffffffffffffffffffffffffffff1673ffffffffffffffffffffffffffffffffffffffff16636e9960c36040518163ffffffff1660e01b815260040160206040518083038186803b1580156200026757600080fd5b505afa1580156200027c573d6000803e3d6000fd5b505050506040513d601f19601f82011682018060405250810190620002a2919062000597565b600b60006101000a81548173ffffffffffffffffffffffffffffffffffffffff021916908373ffffffffffffffffffffffffffffffffffffffff160217905550600c60009054906101000a900473ffffffffffffffffffffffffffffffffffffffff16600260000160006101000a81548173ffffffffffffffffffffffffffffffffffffffff021916908373ffffffffffffffffffffffffffffffffffffffff1602179055508260026001019080519060200190620003639291906200045e565b50816002800190805190602001906200037e9291906200045e565b5080600260030190805190602001906200039a9291906200045e565b506000600260060160006101000a81548160ff02191690836004811115620003eb577f4e487b7100000000000000000000000000000000000000000000000000000000600052602160045260246000fd5b02179055507fd522f2d1d2a06f680cab25758f7276d7388326160dafc47f5009863a407d569983600c60009054906101000a900473ffffffffffffffffffffffffffffffffffffffff16848460006040516200044c959493929190620006fa565b60405180910390a15050505062000987565b8280546200046c9062000882565b90600052602060002090601f016020900481019282620004905760008555620004dc565b82601f10620004ab57805160ff1916838001178555620004dc565b82800160010185558215620004dc579182015b82811115620004db578251825591602001919060010190620004be565b5b509050620004eb9190620004ef565b5090565b5b808211156200050a576000816000905550600101620004f0565b5090565b6000620005256200051f84620007a0565b6200076c565b9050828152602081018484840111156200053e57600080fd5b6200054b8482856200084c565b509392505050565b60008151905062000564816200096d565b92915050565b600082601f8301126200057c57600080fd5b81516200058e8482602086016200050e565b91505092915050565b600060208284031215620005aa57600080fd5b6000620005ba8482850162000553565b91505092915050565b60008060008060808587031215620005da57600080fd5b6000620005ea8782880162000553565b945050602085015167ffffffffffffffff8111156200060857600080fd5b62000616878288016200056a565b935050604085015167ffffffffffffffff8111156200063457600080fd5b62000642878288016200056a565b925050606085015167ffffffffffffffff8111156200066057600080fd5b6200066e878288016200056a565b91505092959194509250565b6200068581620007ef565b82525050565b620006968162000838565b82525050565b6000620006a982620007d3565b620006b58185620007de565b9350620006c78185602086016200084c565b620006d28162000945565b840191505092915050565b6000602082019050620006f460008301846200067a565b92915050565b600060a08201905081810360008301526200071681886200069c565b90506200072760208301876200067a565b81810360408301526200073b81866200069c565b905081810360608301526200075181856200069c565b90506200076260808301846200068b565b9695505050505050565b6000604051905081810181811067ffffffffffffffff8211171562000796576200079562000916565b5b8060405250919050565b600067ffffffffffffffff821115620007be57620007bd62000916565b5b601f19601f8301169050602081019050919050565b600081519050919050565b600082825260208201905092915050565b6000620007fc8262000818565b9050919050565b6000819050620008138262000956565b919050565b600073ffffffffffffffffffffffffffffffffffffffff82169050919050565b6000620008458262000803565b9050919050565b60005b838110156200086c5780820151818401526020810190506200084f565b838111156200087c576000848401525b50505050565b600060028204905060018216806200089b57607f821691505b60208210811415620008b257620008b1620008e7565b5b50919050565b7f4e487b7100000000000000000000000000000000000000000000000000000000600052602160045260246000fd5b7f4e487b7100000000000000000000000000000000000000000000000000000000600052602260045260246000fd5b7f4e487b7100000000000000000000000000000000000000000000000000000000600052604160045260246000fd5b6000601f19601f8301169050919050565b600581106200096a5762000969620008b8565b5b50565b6200097881620007ef565b81146200098457600080fd5b50565b61319980620009976000396000f3fe608060405234801561001057600080fd5b50600436106100a95760003560e01c80639c3c2f7a116100715780639c3c2f7a1461012c578063baa1223814610136578063c19d93fb14610152578063c58a34cc14610170578063d27e750d1461018c578063df0b0a11146101aa576100a9565b8063406c7f4f146100ae5780634ba20050146100ca578063551e17c6146100e85780639212ef12146101185780639b3ef1ee14610122575b600080fd5b6100c860048036038101906100c39190612366565b6101c8565b005b6100d2610339565b6040516100df9190612a1d565b60405180910390f35b61010260048036038101906100fd9190612301565b6105fa565b60405161010f91906128c8565b60405180910390f35b610120610a84565b005b61012a610be4565b005b610134610d44565b005b610150600480360381019061014b91906123b8565b610eab565b005b61015a611000565b60405161016791906128e3565b60405180910390f35b61018a6004803603810190610185919061244f565b611013565b005b6101946110b9565b6040516101a19190612a3f565b60405180910390f35b6101b2611425565b6040516101bf91906128a6565b60405180910390f35b600b60009054906101000a900473ffffffffffffffffffffffffffffffffffffffff1673ffffffffffffffffffffffffffffffffffffffff163373ffffffffffffffffffffffffffffffffffffffff1614610258576040517f08c379a000000000000000000000000000000000000000000000000000000000815260040161024f9061299d565b60405180910390fd5b6002806004811115610293577f4e487b7100000000000000000000000000000000000000000000000000000000600052602160045260246000fd5b600160149054906101000a900460ff1660048111156102db577f4e487b7100000000000000000000000000000000000000000000000000000000600052602160045260246000fd5b1461031b576040517f08c379a0000000000000000000000000000000000000000000000000000000008152600401610312906129dd565b60405180910390fd5b8160026005018190555061032d610a84565b61033561157e565b5050565b6103416120cb565b60026040518060e00160405290816000820160009054906101000a900473ffffffffffffffffffffffffffffffffffffffff1673ffffffffffffffffffffffffffffffffffffffff1673ffffffffffffffffffffffffffffffffffffffff1681526020016001820180546103b490612f33565b80601f01602080910402602001604051908101604052809291908181526020018280546103e090612f33565b801561042d5780601f106104025761010080835404028352916020019161042d565b820191906000526020600020905b81548152906001019060200180831161041057829003601f168201915b5050505050815260200160028201805461044690612f33565b80601f016020809104026020016040519081016040528092919081815260200182805461047290612f33565b80156104bf5780601f10610494576101008083540402835291602001916104bf565b820191906000526020600020905b8154815290600101906020018083116104a257829003601f168201915b505050505081526020016003820180546104d890612f33565b80601f016020809104026020016040519081016040528092919081815260200182805461050490612f33565b80156105515780601f1061052657610100808354040283529160200191610551565b820191906000526020600020905b81548152906001019060200180831161053457829003601f168201915b5050505050815260200160048201548152602001600582015481526020016006820160009054906101000a900460ff1660048111156105b9577f4e487b7100000000000000000000000000000000000000000000000000000000600052602160045260246000fd5b60048111156105f1577f4e487b7100000000000000000000000000000000000000000000000000000000600052602160045260246000fd5b81525050905090565b60006001806004811115610637577f4e487b7100000000000000000000000000000000000000000000000000000000600052602160045260246000fd5b600160149054906101000a900460ff16600481111561067f577f4e487b7100000000000000000000000000000000000000000000000000000000600052602160045260246000fd5b146106bf576040517f08c379a00000000000000000000000000000000000000000000000000000000081526004016106b6906129dd565b60405180910390fd5b8360008054906101000a900473ffffffffffffffffffffffffffffffffffffffff16600160006101000a81548173ffffffffffffffffffffffffffffffffffffffff021916908373ffffffffffffffffffffffffffffffffffffffff160217905550600160009054906101000a900473ffffffffffffffffffffffffffffffffffffffff1673ffffffffffffffffffffffffffffffffffffffff166368c8978582600c60009054906101000a900473ffffffffffffffffffffffffffffffffffffffff166040518363ffffffff1660e01b81526004016107a092919061281d565b60206040518083038186803b1580156107b857600080fd5b505afa1580156107cc573d6000803e3d6000fd5b505050506040513d601f19601f820116820180604052508101906107f0919061233d565b61082f576040517f08c379a0000000000000000000000000000000000000000000000000000000008152600401610826906129fd565b60405180910390fd5b6000600d54111561086557600d54600e5461084a9190612bb5565b4211156108645761085b6002611904565b60009250610a7c565b5b600073ffffffffffffffffffffffffffffffffffffffff16600a60008773ffffffffffffffffffffffffffffffffffffffff1673ffffffffffffffffffffffffffffffffffffffff16815260200190815260200160002060000160009054906101000a900473ffffffffffffffffffffffffffffffffffffffff1673ffffffffffffffffffffffffffffffffffffffff16141561090b576109068585611a23565b610a6f565b600061091686611dc7565b90508460098281548110610953577f4e487b7100000000000000000000000000000000000000000000000000000000600052603260045260246000fd5b906000526020600020906003020160010181905550600981815481106109a2577f4e487b7100000000000000000000000000000000000000000000000000000000600052603260045260246000fd5b9060005260206000209060030201600a60008873ffffffffffffffffffffffffffffffffffffffff1673ffffffffffffffffffffffffffffffffffffffff1681526020019081526020016000206000820160009054906101000a900473ffffffffffffffffffffffffffffffffffffffff168160000160006101000a81548173ffffffffffffffffffffffffffffffffffffffff021916908373ffffffffffffffffffffffffffffffffffffffff1602179055506001820154816001015560028201548160020155905050505b610a77611ed8565b600192505b505092915050565b600b60009054906101000a900473ffffffffffffffffffffffffffffffffffffffff1673ffffffffffffffffffffffffffffffffffffffff163373ffffffffffffffffffffffffffffffffffffffff1614610b14576040517f08c379a0000000000000000000000000000000000000000000000000000000008152600401610b0b9061299d565b60405180910390fd5b6002806004811115610b4f577f4e487b7100000000000000000000000000000000000000000000000000000000600052602160045260246000fd5b600160149054906101000a900460ff166004811115610b97577f4e487b7100000000000000000000000000000000000000000000000000000000600052602160045260246000fd5b14610bd7576040517f08c379a0000000000000000000000000000000000000000000000000000000008152600401610bce906129dd565b60405180910390fd5b610be16004611904565b50565b600b60009054906101000a900473ffffffffffffffffffffffffffffffffffffffff1673ffffffffffffffffffffffffffffffffffffffff163373ffffffffffffffffffffffffffffffffffffffff1614610c74576040517f08c379a0000000000000000000000000000000000000000000000000000000008152600401610c6b9061299d565b60405180910390fd5b6001806004811115610caf577f4e487b7100000000000000000000000000000000000000000000000000000000600052602160045260246000fd5b600160149054906101000a900460ff166004811115610cf7577f4e487b7100000000000000000000000000000000000000000000000000000000600052602160045260246000fd5b14610d37576040517f08c379a0000000000000000000000000000000000000000000000000000000008152600401610d2e906129dd565b60405180910390fd5b610d416002611904565b50565b600b60009054906101000a900473ffffffffffffffffffffffffffffffffffffffff1673ffffffffffffffffffffffffffffffffffffffff163373ffffffffffffffffffffffffffffffffffffffff1614610dd4576040517f08c379a0000000000000000000000000000000000000000000000000000000008152600401610dcb9061299d565b60405180910390fd5b6000806004811115610e0f577f4e487b7100000000000000000000000000000000000000000000000000000000600052602160045260246000fd5b600160149054906101000a900460ff166004811115610e57577f4e487b7100000000000000000000000000000000000000000000000000000000600052602160045260246000fd5b14610e97576040517f08c379a0000000000000000000000000000000000000000000000000000000008152600401610e8e906129dd565b60405180910390fd5b42600e81905550610ea86001611904565b50565b600b60009054906101000a900473ffffffffffffffffffffffffffffffffffffffff1673ffffffffffffffffffffffffffffffffffffffff163373ffffffffffffffffffffffffffffffffffffffff1614610f3b576040517f08c379a0000000000000000000000000000000000000000000000000000000008152600401610f329061299d565b60405180910390fd5b8260026001019080519060200190610f54929190612156565b5081600280019080519060200190610f6d929190612156565b508060026003019080519060200190610f87929190612156565b507f6b4f3622bfe3f90e199183dbdbe31c1a8652be6bde9b5534b2dd06338b725bfc83600c60009054906101000a900473ffffffffffffffffffffffffffffffffffffffff168484600260060160009054906101000a900460ff16604051610ff3959493929190612935565b60405180910390a1505050565b600160149054906101000a900460ff1681565b600b60009054906101000a900473ffffffffffffffffffffffffffffffffffffffff1673ffffffffffffffffffffffffffffffffffffffff163373ffffffffffffffffffffffffffffffffffffffff16146110a3576040517f08c379a000000000000000000000000000000000000000000000000000000000815260040161109a9061299d565b60405180910390fd5b6001816110b09190612d8c565b600d8190555050565b6110c16121dc565b600b60009054906101000a900473ffffffffffffffffffffffffffffffffffffffff1673ffffffffffffffffffffffffffffffffffffffff163373ffffffffffffffffffffffffffffffffffffffff1614611151576040517f08c379a00000000000000000000000000000000000000000000000000000000081526004016111489061299d565b60405180910390fd5b600480600481111561118c577f4e487b7100000000000000000000000000000000000000000000000000000000600052602160045260246000fd5b600160149054906101000a900460ff1660048111156111d4577f4e487b7100000000000000000000000000000000000000000000000000000000600052602160045260246000fd5b14611214576040517f08c379a000000000000000000000000000000000000000000000000000000000815260040161120b906129dd565b60405180910390fd5b60006009600081548110611251577f4e487b7100000000000000000000000000000000000000000000000000000000600052603260045260246000fd5b90600052602060002090600302016040518060600160405290816000820160009054906101000a900473ffffffffffffffffffffffffffffffffffffffff1673ffffffffffffffffffffffffffffffffffffffff1673ffffffffffffffffffffffffffffffffffffffff16815260200160018201548152602001600282015481525050905060005b60098054905081101561141c5760008111801561134457506009818154811061132b577f4e487b7100000000000000000000000000000000000000000000000000000000600052603260045260246000fd5b9060005260206000209060030201600201548260400151135b156114095760098181548110611383577f4e487b7100000000000000000000000000000000000000000000000000000000600052603260045260246000fd5b90600052602060002090600302016040518060600160405290816000820160009054906101000a900473ffffffffffffffffffffffffffffffffffffffff1673ffffffffffffffffffffffffffffffffffffffff1673ffffffffffffffffffffffffffffffffffffffff1681526020016001820154815260200160028201548152505091505b808061141490612f65565b9150506112d9565b50809250505090565b6060600b60009054906101000a900473ffffffffffffffffffffffffffffffffffffffff1673ffffffffffffffffffffffffffffffffffffffff163373ffffffffffffffffffffffffffffffffffffffff16146114b7576040517f08c379a00000000000000000000000000000000000000000000000000000000081526004016114ae9061299d565b60405180910390fd5b6009805480602002602001604051908101604052809291908181526020016000905b8282101561157557838290600052602060002090600302016040518060600160405290816000820160009054906101000a900473ffffffffffffffffffffffffffffffffffffffff1673ffffffffffffffffffffffffffffffffffffffff1673ffffffffffffffffffffffffffffffffffffffff16815260200160018201548152602001600282015481525050815260200190600101906114d9565b50505050905090565b6000600260050154905060005b6009805490508110156119005760008260646115fc600985815481106115da577f4e487b7100000000000000000000000000000000000000000000000000000000600052603260045260246000fd5b906000526020600020906003020160010154866115f79190612de6565b611f31565b6116069190612c75565b6116109190612c0b565b9050806009838154811061164d577f4e487b7100000000000000000000000000000000000000000000000000000000600052603260045260246000fd5b90600052602060002090600302016002018190555060006009838154811061169e577f4e487b7100000000000000000000000000000000000000000000000000000000600052603260045260246000fd5b906000526020600020906003020160000160009054906101000a900473ffffffffffffffffffffffffffffffffffffffff1690506009838154811061170c577f4e487b7100000000000000000000000000000000000000000000000000000000600052603260045260246000fd5b9060005260206000209060030201600a60008373ffffffffffffffffffffffffffffffffffffffff1673ffffffffffffffffffffffffffffffffffffffff1681526020019081526020016000206000820160009054906101000a900473ffffffffffffffffffffffffffffffffffffffff168160000160006101000a81548173ffffffffffffffffffffffffffffffffffffffff021916908373ffffffffffffffffffffffffffffffffffffffff160217905550600182015481600101556002820154816002015590505060008054906101000a900473ffffffffffffffffffffffffffffffffffffffff16600160006101000a81548173ffffffffffffffffffffffffffffffffffffffff021916908373ffffffffffffffffffffffffffffffffffffffff160217905550600160009054906101000a900473ffffffffffffffffffffffffffffffffffffffff1673ffffffffffffffffffffffffffffffffffffffff16632b5982828383600c60009054906101000a900473ffffffffffffffffffffffffffffffffffffffff166040518463ffffffff1660e01b81526004016118b9939291906128fe565b600060405180830381600087803b1580156118d357600080fd5b505af11580156118e7573d6000803e3d6000fd5b50505050505080806118f890612f65565b91505061158b565b5050565b80600160146101000a81548160ff0219169083600481111561194f577f4e487b7100000000000000000000000000000000000000000000000000000000600052602160045260246000fd5b0217905550600160149054906101000a900460ff16600260060160006101000a81548160ff021916908360048111156119b1577f4e487b7100000000000000000000000000000000000000000000000000000000600052602160045260246000fd5b02179055507fc6a02902a698efd92baa973c2db418e1a41ac73b0c4ab762db97db63fc0de460600c60009054906101000a900473ffffffffffffffffffffffffffffffffffffffff16600160149054906101000a900460ff16604051611a1892919061287d565b60405180910390a150565b60008054906101000a900473ffffffffffffffffffffffffffffffffffffffff16600160006101000a81548173ffffffffffffffffffffffffffffffffffffffff021916908373ffffffffffffffffffffffffffffffffffffffff1602179055506000600160009054906101000a900473ffffffffffffffffffffffffffffffffffffffff1673ffffffffffffffffffffffffffffffffffffffff1663d473933f84600c60009054906101000a900473ffffffffffffffffffffffffffffffffffffffff166040518363ffffffff1660e01b8152600401611b0592919061281d565b60206040518083038186803b158015611b1d57600080fd5b505afa158015611b31573d6000803e3d6000fd5b505050506040513d601f19601f82011682018060405250810190611b55919061238f565b9050600060405180606001604052808573ffffffffffffffffffffffffffffffffffffffff168152602001848152602001838152509050600981908060018154018082558091505060019003906000526020600020906003020160009091909190915060008201518160000160006101000a81548173ffffffffffffffffffffffffffffffffffffffff021916908373ffffffffffffffffffffffffffffffffffffffff1602179055506020820151816001015560408201518160020155505080600a60008673ffffffffffffffffffffffffffffffffffffffff1673ffffffffffffffffffffffffffffffffffffffff16815260200190815260200160002060008201518160000160006101000a81548173ffffffffffffffffffffffffffffffffffffffff021916908373ffffffffffffffffffffffffffffffffffffffff1602179055506020820151816001015560408201518160020155905050600160009054906101000a900473ffffffffffffffffffffffffffffffffffffffff1673ffffffffffffffffffffffffffffffffffffffff16630a7069fb85600c60009054906101000a900473ffffffffffffffffffffffffffffffffffffffff166040518363ffffffff1660e01b8152600401611d3292919061281d565b600060405180830381600087803b158015611d4c57600080fd5b505af1158015611d60573d6000803e3d6000fd5b505050507f91f7be15c56ca6364f73eb0bedf2d216be879e544d6cfbafed84257de509a533600c60009054906101000a900473ffffffffffffffffffffffffffffffffffffffff168585604051611db993929190612846565b60405180910390a150505050565b600080600090505b600980549050811015611e97578273ffffffffffffffffffffffffffffffffffffffff1660098281548110611e2d577f4e487b7100000000000000000000000000000000000000000000000000000000600052603260045260246000fd5b906000526020600020906003020160000160009054906101000a900473ffffffffffffffffffffffffffffffffffffffff1673ffffffffffffffffffffffffffffffffffffffff161415611e845780915050611ed3565b8080611e8f90612f65565b915050611dcf565b506040517f08c379a0000000000000000000000000000000000000000000000000000000008152600401611eca906129bd565b60405180910390fd5b919050565b6000611ee2611f53565b90506000611eee612040565b905060006009805490509050600082826064611f0a9190612c75565b611f149190612de6565b84611f1f9190612c0b565b90508060026004018190555050505050565b600080821215611f4a5781611f4590612fae565b611f4c565b815b9050919050565b6000806000905060005b6009805490508110156120385760098181548110611fa4577f4e487b7100000000000000000000000000000000000000000000000000000000600052603260045260246000fd5b9060005260206000209060030201600201546064611fc29190612de6565b60098281548110611ffc577f4e487b7100000000000000000000000000000000000000000000000000000000600052603260045260246000fd5b9060005260206000209060030201600101546120189190612c75565b826120239190612b21565b9150808061203090612f65565b915050611f5d565b508091505090565b6000806000905060005b6009805490508110156120c35760098181548110612091577f4e487b7100000000000000000000000000000000000000000000000000000000600052603260045260246000fd5b906000526020600020906003020160020154826120ae9190612b21565b915080806120bb90612f65565b91505061204a565b508091505090565b6040518060e00160405280600073ffffffffffffffffffffffffffffffffffffffff168152602001606081526020016060815260200160608152602001600081526020016000815260200160006004811115612150577f4e487b7100000000000000000000000000000000000000000000000000000000600052602160045260246000fd5b81525090565b82805461216290612f33565b90600052602060002090601f01602090048101928261218457600085556121cb565b82601f1061219d57805160ff19168380011785556121cb565b828001600101855582156121cb579182015b828111156121ca5782518255916020019190600101906121af565b5b5090506121d89190612213565b5090565b6040518060600160405280600073ffffffffffffffffffffffffffffffffffffffff16815260200160008152602001600081525090565b5b8082111561222c576000816000905550600101612214565b5090565b600061224361223e84612a8b565b612a5a565b90508281526020810184848401111561225b57600080fd5b612266848285612ef1565b509392505050565b60008135905061227d81613107565b92915050565b6000815190506122928161311e565b92915050565b6000813590506122a781613135565b92915050565b6000815190506122bc81613135565b92915050565b600082601f8301126122d357600080fd5b81356122e3848260208601612230565b91505092915050565b6000813590506122fb8161314c565b92915050565b6000806040838503121561231457600080fd5b60006123228582860161226e565b925050602061233385828601612298565b9150509250929050565b60006020828403121561234f57600080fd5b600061235d84828501612283565b91505092915050565b60006020828403121561237857600080fd5b600061238684828501612298565b91505092915050565b6000602082840312156123a157600080fd5b60006123af848285016122ad565b91505092915050565b6000806000606084860312156123cd57600080fd5b600084013567ffffffffffffffff8111156123e757600080fd5b6123f3868287016122c2565b935050602084013567ffffffffffffffff81111561241057600080fd5b61241c868287016122c2565b925050604084013567ffffffffffffffff81111561243957600080fd5b612445868287016122c2565b9150509250925092565b60006020828403121561246157600080fd5b600061246f848285016122ec565b91505092915050565b60006124848383612799565b60608301905092915050565b61249981612e7a565b82525050565b6124a881612e7a565b82525050565b60006124b982612acb565b6124c38185612aee565b93506124ce83612abb565b8060005b838110156124ff5781516124e68882612478565b97506124f183612ae1565b9250506001810190506124d2565b5085935050505092915050565b61251581612e8c565b82525050565b61252481612edf565b82525050565b61253381612edf565b82525050565b61254281612eab565b82525050565b61255181612eab565b82525050565b600061256282612ad6565b61256c8185612aff565b935061257c818560208601612f00565b612585816130e2565b840191505092915050565b600061259b82612ad6565b6125a58185612b10565b93506125b5818560208601612f00565b6125be816130e2565b840191505092915050565b60006125d6601583612b10565b91507f4e6f74206f776e6572206f662073657373696f6e2100000000000000000000006000830152602082019050919050565b6000612616602183612b10565b91507f4e6f7420666f756e64207061727469636970616e74206279206163636f756e7460008301527f21000000000000000000000000000000000000000000000000000000000000006020830152604082019050919050565b600061267c600e83612b10565b91507f496e76616c6964207374617465210000000000000000000000000000000000006000830152602082019050919050565b60006126bc601683612b10565b91507f41646472657373206861736e27742065786973747321000000000000000000006000830152602082019050919050565b600060e0830160008301516127076000860182612490565b506020830151848203602086015261271f8282612557565b915050604083015184820360408601526127398282612557565b915050606083015184820360608601526127538282612557565b91505060808301516127686080860182612539565b5060a083015161277b60a0860182612539565b5060c083015161278e60c086018261251b565b508091505092915050565b6060820160008201516127af6000850182612490565b5060208201516127c26020850182612539565b5060408201516127d56040850182612539565b50505050565b6060820160008201516127f16000850182612490565b5060208201516128046020850182612539565b5060408201516128176040850182612539565b50505050565b6000604082019050612832600083018561249f565b61283f602083018461249f565b9392505050565b600060608201905061285b600083018661249f565b612868602083018561249f565b6128756040830184612548565b949350505050565b6000604082019050612892600083018561249f565b61289f602083018461252a565b9392505050565b600060208201905081810360008301526128c081846124ae565b905092915050565b60006020820190506128dd600083018461250c565b92915050565b60006020820190506128f8600083018461252a565b92915050565b60006060820190506129136000830186612548565b612920602083018561249f565b61292d604083018461249f565b949350505050565b600060a082019050818103600083015261294f8188612590565b905061295e602083018761249f565b81810360408301526129708186612590565b905081810360608301526129848185612590565b9050612993608083018461252a565b9695505050505050565b600060208201905081810360008301526129b6816125c9565b9050919050565b600060208201905081810360008301526129d681612609565b9050919050565b600060208201905081810360008301526129f68161266f565b9050919050565b60006020820190508181036000830152612a16816126af565b9050919050565b60006020820190508181036000830152612a3781846126ef565b905092915050565b6000606082019050612a5460008301846127db565b92915050565b6000604051905081810181811067ffffffffffffffff82111715612a8157612a806130b3565b5b8060405250919050565b600067ffffffffffffffff821115612aa657612aa56130b3565b5b601f19601f8301169050602081019050919050565b6000819050602082019050919050565b600081519050919050565b600081519050919050565b6000602082019050919050565b600082825260208201905092915050565b600082825260208201905092915050565b600082825260208201905092915050565b6000612b2c82612eab565b9150612b3783612eab565b9250817f7fffffffffffffffffffffffffffffffffffffffffffffffffffffffffffffff03831360008312151615612b7257612b71612ff7565b5b817f8000000000000000000000000000000000000000000000000000000000000000038312600083121615612baa57612ba9612ff7565b5b828201905092915050565b6000612bc082612ed5565b9150612bcb83612ed5565b9250827fffffffffffffffffffffffffffffffffffffffffffffffffffffffffffffffff03821115612c0057612bff612ff7565b5b828201905092915050565b6000612c1682612eab565b9150612c2183612eab565b925082612c3157612c30613026565b5b600160000383147f800000000000000000000000000000000000000000000000000000000000000083141615612c6a57612c69612ff7565b5b828205905092915050565b6000612c8082612eab565b9150612c8b83612eab565b9250827f7fffffffffffffffffffffffffffffffffffffffffffffffffffffffffffffff0482116000841360008413161615612cca57612cc9612ff7565b5b817f80000000000000000000000000000000000000000000000000000000000000000583126000841260008413161615612d0757612d06612ff7565b5b827f80000000000000000000000000000000000000000000000000000000000000000582126000841360008412161615612d4457612d43612ff7565b5b827f7fffffffffffffffffffffffffffffffffffffffffffffffffffffffffffffff0582126000841260008412161615612d8157612d80612ff7565b5b828202905092915050565b6000612d9782612ed5565b9150612da283612ed5565b9250817fffffffffffffffffffffffffffffffffffffffffffffffffffffffffffffffff0483118215151615612ddb57612dda612ff7565b5b828202905092915050565b6000612df182612eab565b9150612dfc83612eab565b9250827f800000000000000000000000000000000000000000000000000000000000000001821260008412151615612e3757612e36612ff7565b5b827f7fffffffffffffffffffffffffffffffffffffffffffffffffffffffffffffff018213600084121615612e6f57612e6e612ff7565b5b828203905092915050565b6000612e8582612eb5565b9050919050565b60008115159050919050565b6000819050612ea6826130f3565b919050565b6000819050919050565b600073ffffffffffffffffffffffffffffffffffffffff82169050919050565b6000819050919050565b6000612eea82612e98565b9050919050565b82818337600083830152505050565b60005b83811015612f1e578082015181840152602081019050612f03565b83811115612f2d576000848401525b50505050565b60006002820490506001821680612f4b57607f821691505b60208210811415612f5f57612f5e613084565b5b50919050565b6000612f7082612ed5565b91507fffffffffffffffffffffffffffffffffffffffffffffffffffffffffffffffff821415612fa357612fa2612ff7565b5b600182019050919050565b6000612fb982612eab565b91507f8000000000000000000000000000000000000000000000000000000000000000821415612fec57612feb612ff7565b5b816000039050919050565b7f4e487b7100000000000000000000000000000000000000000000000000000000600052601160045260246000fd5b7f4e487b7100000000000000000000000000000000000000000000000000000000600052601260045260246000fd5b7f4e487b7100000000000000000000000000000000000000000000000000000000600052602160045260246000fd5b7f4e487b7100000000000000000000000000000000000000000000000000000000600052602260045260246000fd5b7f4e487b7100000000000000000000000000000000000000000000000000000000600052604160045260246000fd5b6000601f19601f8301169050919050565b6005811061310457613103613055565b5b50565b61311081612e7a565b811461311b57600080fd5b50565b61312781612e8c565b811461313257600080fd5b50565b61313e81612eab565b811461314957600080fd5b50565b61315581612ed5565b811461316057600080fd5b5056fea2646970667358221220801c5caf88e19703556f323165b23330be866b5a22dafb3d56a34b6d2781510264736f6c63430008000033",
  "immutableReferences": {},
  "source": "// SPDX-License-Identifier: MIT\r\npragma solidity ^0.8.0;\r\n\r\nimport \"./Main.sol\";\r\n\r\n// Interface of Main contract to call from Session contract\r\ninterface IMain {\r\n    function addSession(address session) external;\r\n}\r\n\r\ncontract Session {\r\n    // Variable to hold Main Contract Address when create new Session Contract\r\n    address internal mainContract;\r\n    // Variable to hold Main Contract instance to call functions from Main\r\n    Main MainContract;\r\n\r\n    // TODO: Variables\r\n    enum State {INIT, START, STOP, PRICING, CLOSE}\r\n\r\n    struct IProduct {\r\n        address session;\r\n        string name;\r\n        string description;\r\n        string image;\r\n        int proposedPrice;\r\n        int finalPrice;\r\n        State state;\r\n    }\r\n\r\n    // thong tin nguoi tham gia phien dau gia\r\n    struct Participant {\r\n        address account;\r\n        int price;\r\n        int deviation;\r\n    }\r\n\r\n    State public state;\r\n    IProduct internal _iProducts;\r\n\r\n    Participant[] internal _participants;\r\n    // account => participant\r\n    mapping (address => Participant) internal _mpParticipants;\r\n\r\n    address internal admin;\r\n    address internal session;\r\n    uint private _timeout;\r\n    uint private _startTime;\r\n\r\n    event createProduct(string name, address session, string description, string image, State state);\r\n    event updateProduct(string name, address session, string description, string image, State state);\r\n    event updateStatePricingSession(address session, State state);\r\n    event registerParticipant(address session, address account, int price);\r\n\r\n    constructor(address _mainContract,\r\n        // Other arguments\r\n        string memory name, string memory description, string memory image\r\n    ) {\r\n        // Get Main Contract instance\r\n        mainContract = _mainContract;\r\n        MainContract = Main(_mainContract);\r\n\r\n        // TODO: Init Session contract\r\n        state = State.INIT;\r\n        // Call Main Contract function to link current contract.\r\n        session = address(this);\r\n        MainContract.addSession(session);\r\n        admin = MainContract.getAdmin();\r\n\r\n        _iProducts.session = session;\r\n        _iProducts.name = name;\r\n        _iProducts.description = description;\r\n        _iProducts.image = image;\r\n        _iProducts.state = State.INIT;\r\n\r\n        emit createProduct(name, session, description, image, State.INIT);\r\n    }\r\n\r\n    modifier onlyState(State stateRequired) {\r\n        require(state == stateRequired, \"Invalid state!\");\r\n        _;\r\n    }\r\n\r\n    modifier onlyAdmin() {\r\n        require(msg.sender == admin, \"Not owner of session!\");\r\n        _;\r\n    }\r\n\r\n    modifier checkAccountHasExists(address account) {\r\n        MainContract = Main(mainContract);\r\n        require(MainContract.checkAccountHasExists(account, session), \"Address hasn't exists!\");\r\n        _;\r\n    }\r\n\r\n    function getProduct() public view returns (IProduct memory) {\r\n        return _iProducts;\r\n    }\r\n\r\n    function updateSession(string memory name, string memory description, string memory image) public onlyAdmin {\r\n        _iProducts.name = name;\r\n        _iProducts.description = description;\r\n        _iProducts.image = image;\r\n\r\n        emit updateProduct(name, session, description, image, _iProducts.state);\r\n    }\r\n\r\n    function startPricingSession() public onlyAdmin onlyState(State.INIT) {\r\n        _startTime = block.timestamp;\r\n        _updateStatePricingSession(State.START);\r\n    }\r\n\r\n    function stopPricingSession() public onlyAdmin onlyState(State.START) {\r\n        _updateStatePricingSession(State.STOP);\r\n    }\r\n\r\n    function closePricingSession() onlyAdmin public onlyState(State.STOP) {\r\n        _updateStatePricingSession(State.CLOSE);\r\n    }\r\n\r\n    function _updateStatePricingSession(State newState) internal {\r\n        state = newState;\r\n        _iProducts.state = state;\r\n\r\n        emit updateStatePricingSession(session, state);\r\n    }\r\n    \r\n    function setTimeout(uint timeout) public onlyAdmin {\r\n        _timeout = timeout * 1 seconds;\r\n    }\r\n\r\n    function setProposedPrice(address account, int price) public onlyState(State.START) checkAccountHasExists(account) returns (bool) {\r\n        if(_timeout > 0) {\r\n            if(block.timestamp > (_startTime + _timeout)) {\r\n                _updateStatePricingSession(State.STOP);\r\n                return false;\r\n            }\r\n        }\r\n\r\n        if(_mpParticipants[account].account == address(0))\r\n            _registerSessionParticipant(account, price);\r\n        else {\r\n            uint index = _getIndexParticipantByAccount(account);\r\n            _participants[index].price = price;\r\n            _mpParticipants[account] = _participants[index];\r\n        }\r\n        _caculatorProposedPrice();\r\n        return true;\r\n    }\r\n\r\n    function _getIndexParticipantByAccount(address account) internal view returns (uint) {\r\n        for(uint i = 0; i < _participants.length; i++) {\r\n            if(_participants[i].account == account)\r\n                return i;\r\n        }\r\n        revert(\"Not found participant by account!\");\r\n    }\r\n\r\n    function _registerSessionParticipant(address account, int price) internal {\r\n        MainContract = Main(mainContract);\r\n        int deviation = MainContract.getDeviationOfParticipant(account, session);\r\n\r\n        Participant memory participant = Participant(account, price, deviation);\r\n        _participants.push(participant);\r\n        _mpParticipants[account] = participant;\r\n\r\n        MainContract.updateNumberOfPricingSessionByAccount(account, session);\r\n\r\n        emit registerParticipant(session, account, price);\r\n    }\r\n\r\n    function setFinalPrice(int finalPrice) public onlyAdmin onlyState(State.STOP) {\r\n        _iProducts.finalPrice = finalPrice;\r\n        closePricingSession();\r\n        _caculatorDeviationOfParticipant();\r\n    }\r\n\r\n    function _caculatorProposedPrice() internal {\r\n        int sPriceGivenByParticipant = _sumPriceGivenByParticipant();\r\n        int sDeviationOfParticipant = _sumDeviationOfParticipant();\r\n        uint n = _participants.length;\r\n\r\n        int proposedPrice = 0;\r\n        proposedPrice = sPriceGivenByParticipant / (100 * int(n) - sDeviationOfParticipant);\r\n\r\n        _iProducts.proposedPrice = proposedPrice;\r\n    }\r\n\r\n    function _sumPriceGivenByParticipant() internal view returns (int) {\r\n        int sum = 0;\r\n        for (uint i = 0; i < _participants.length; i++) {\r\n            sum += (_participants[i].price * (100 - _participants[i].deviation));\r\n        }\r\n        return sum;\r\n    }\r\n\r\n    function _sumDeviationOfParticipant() internal view returns (int) {\r\n        int sum = 0;\r\n        for (uint i = 0; i < _participants.length; i++) {\r\n            sum += _participants[i].deviation;\r\n        }\r\n        return sum;\r\n    }\r\n\r\n    function _caculatorDeviationOfParticipant() internal {\r\n        int finalPrice = _iProducts.finalPrice;\r\n        for(uint i = 0; i < _participants.length; i++) {\r\n            int deviation = (abs(finalPrice - _participants[i].price) * 100 / finalPrice);\r\n            _participants[i].deviation = deviation;\r\n            address curAccount = _participants[i].account;\r\n            _mpParticipants[curAccount] = _participants[i];\r\n\r\n            // tinh do lech tich luy\r\n            MainContract = Main(mainContract);\r\n            MainContract.caculatorAccumulatedDeviation(deviation, curAccount, session);\r\n        }\r\n    }\r\n\r\n    function abs(int x) internal pure returns (int) {\r\n        return x >= 0 ? x : -x;\r\n    }\r\n\r\n    function getAllParticipantsOfSession() public onlyAdmin view returns (Participant[] memory) {\r\n        return _participants;\r\n    }\r\n\r\n    function getParticipantWinner() public onlyAdmin onlyState(State.CLOSE) view returns (Participant memory) {\r\n        Participant memory _winner = _participants[0];\r\n        for(uint i = 0; i < _participants.length; i++) {\r\n            if(i > 0 && _winner.deviation > _participants[i].deviation) \r\n                _winner = _participants[i];\r\n        }\r\n        return _winner;\r\n    }\r\n}\r\n",
  "sourcePath": "E:\\Company\\SmartContract\\FunixPricingChain\\FunixPricingChain\\truffle\\contracts\\Session.sol",
  "compiler": {
    "name": "solc",
    "version": "0.8.0+commit.c7dfd78e.Emscripten.clang"
  },
  "schemaVersion": "3.4.14",
  "updatedAt": "2023-08-10T03:42:58.586Z",
  "devdoc": {
    "kind": "dev",
    "methods": {},
    "version": 1
  },
  "userdoc": {
    "kind": "user",
    "methods": {},
    "version": 1
  }
}